:100000000C28BB2ACC2ADC2AFE00030EF0000408D0
:10001000F1000A08F200F628E02C831203135008BE
:10002000A1004F08A0002125831203132108B2006C
:100030002008B1005208A1005108A0002125831218
:1000400003132108B4002008B30087283208A10058
:100050003108A0003408A3003308A2003530A40002
:10006000352585283208A1003108A0003408A300F6
:100070003308A2003530A400342585283208AA00B0
:100080003108A9003408AC003308AB003530AD00AE
:10009000752285283208AA003108A9003408AC006E
:1000A0003308AB003530AD001B248528033085288C
:1000B000B5015C28B501B50AB60170283408003ACC
:1000C00003196628FF3A03196B2856283308003AAB
:1000D0000319582856283308003A03195A28562875
:1000E0003208A1003108A0003508A2003325852878
:1000F0003408B6003308B5003208A1003108A0006A
:100100003608A3003508A200BA22B00097284E088E
:10011000FF3E031C9528840006300402031895282E
:1001200005308A00043004078200B001B00ACD080F
:10013000031D9C28031008005508CD003008031942
:10014000D7284E08803ECE003008CF000330D52897
:100150003308CF003508D0000430D5280310330D04
:10016000CF003608A1003508A00021258312031313
:100170002108D1002008D0000530D5283208A10080
:100180003108A0002125831203132108D000200884
:10019000CF003408A1003308A000212583120313E7
:1001A0002108D2002008D1000630F800E5284E08CA
:1001B000FF3E031C9528840006300402031895288E
:1001C00005308A000A30040782007808A0004D300C
:1001D000AA2378084D3E8400200883138000840AF7
:1001E00021088000F80AF80A031408008312031398
:1001F0000C1C1A290C10FB0A0D2978307B02031CF9
:1002000015297D14FB01152903307B02031C1529D8
:100210000511FA01FA0A7C1402297A08013A031935
:10022000FD28033A03190429152985308F00EE3083
:100230008E0086298C1C4A298C10F70A043077021C
:10024000003003180130F300083077020030031843
:100250000130F6004229760803198629F901F90AC6
:10026000F701121186297308031986290330F90052
:100270008629760803198629F901F90AF70105117B
:1002800031292B298F210318862905308A00263031
:10029000040782008C1E86298C12981C5229181281
:1002A00018168529181D5729FC141A0886291A08BA
:1002B000F4007129F7018629F7010230FC10F900DA
:1002C0004D30F500F80101300515831692008312B8
:1002D0009101663092007929F70178084D3EF500CA
:1002E00079298F2103185A2905308A002B300407F9
:1002F0008200083078020318852975088400740884
:1003000083138000F80A5708031DFC1472088A0042
:1003100071088400700E8300FE0E7E0E09007908BD
:10032000840005300402080007309F00C0308B00B5
:10033000831605117D147C10CF242E222223302514
:10034000BC245A24031C042AFA01FA0AEC2979086D
:10035000033A031DA729FC18EC295323031CEC299D
:100360007903031DB029FC18EC290D20031CEC298E
:100370000430F900EC29F8080319EC29F93083124C
:10038000031318128511B7006400B70BC429C829DC
:1003900064004D308316031398168312BA00F808D0
:1003A0000319DA293A08840083130008EC24BA0AF6
:1003B000F803CF298316981CDA2998128312851521
:1003C0000000831203131816F70101308316920000
:1003D00083129101663092007C1CF0297C107824F5
:1003E0007D1CF92902307D10831203130515FA00D4
:1003F000FD247908013A0319EC29033A0319A729C6
:10040000063A0319BB29EC290B08B9008B018316A6
:100410008E118312BB010B300515B8006230B70096
:10042000B70B102AB80B102A64000B308312031389
:100430000511B8006230B700B70B1C2AB80B1C2A94
:1004400064000F3083120313BB0A3B02031C0B2A08
:1004500083168E15831239088B00A1298316061581
:10046000861485111812492ACF30372A3330831663
:100470001811412A831618111930412A83161811B0
:100480000C309900582A831618153C2A8316181523
:10049000402A83125608FE3E031C462A840006307A
:1004A00004020318462A05308A0016300407820029
:1004B0008312A001A00AD808031D622AD708031DD1
:1004C000622AA00120088316031D181703191813A8
:1004D000181F6E2A831203131817712A831203132D
:1004E00018139817851518160800AD080319043459
:1004F0002B032C040319A32A0234861E852A2D08F7
:100500008400FF3083138000892A2D088400831320
:100510008001840A8001003455088F2A5608AE00F5
:10052000AF012D0884002E0883138000840A2F0851
:10053000A12A7F232D088400220883138000840AC7
:100540002308800000342A08003A0319A82A7C2ACC
:100550002908003A03197D2A013A03198C2A033A23
:1005600003198E2A083A0319992A013A0319992A7C
:100570007C2A0034DD2A0310861A03140030031885
:100580000130A400A50123082506031DC92A22085D
:100590002406031D04340034861E04342308220478
:1005A0000319033400302302F83003192202031820
:1005B00003342208D500023402342108003A03191A
:1005C000E22ADC2A200884000330040203180234E3
:1005D00000308A000130040782000800A100A20157
:1005E00083120313A0032008FF3A0319202B2108CC
:1005F000840083130008A206A10A000183120313DA
:1006000022185E3A83120313A218BC3A8312031312
:100610002219613A83120313A219C23A83120313F7
:10062000221A9D3A83120313A21A233A8312031348
:10063000221B463A83120313A21B8C3AA200F02A13
:1006400022080800402B5B30831692007A303D2B45
:1006500050308316920085303D2B0D30831692006A
:100660006A303D2B1C303A2B0D30831692006930D6
:100670003D2B0730831692006130831292004E2B7F
:100680005608FE3E031C392B840006300402031872
:10069000392B05308A001030040782008316861635
:1006A000F9018C16080004307802031C7C2B0930F9
:1006B000780203187C2B831203134D085506031D83
:1006C0004D08031D7C2B78084B3E840083130008E3
:1006D000A600840A0008A7007808FE3EA0004D305E
:1006E000AA2327082106031D772B26082006031DB1
:1006F0007C2BFC1003140800FC14031008001C25BC
:100700002108A8002008A7000F39013E8400912489
:10071000A600F030A705280DA80CA70C2808A500F6
:100720002708A400250DA50CA40C250DA50CA40CD0
:100730002408A7070318A80A2508A8072608A20066
:10074000A301A21BA3032708A2070318A30A2808D2
:10075000A3070800A200FF30A400A300A003200804
:10076000FF3A0319CD2B2208840083130008A40646
:10077000A20AA5010310A30CA40C031CC52BA030D6
:1007800083120313A3060130A40608308312031357
:10079000A50A25020318AE2BBA2B2308A100A0013D
:1007A0002408A0040800A100A201831606108312E9
:1007B0000610DA2B83120313211CE02B8316061478
:1007C000043083120310A10CA000A00BE52BE82B32
:1007D0000D308316031306148312A000A00BEE2B1A
:1007E000083083120313A20A220203180800D52B33
:1007F000A63083160313061083120610A000A00B68
:10080000FF2B640017308316031306148312A00015
:10081000A00B082C031083120313061C03140030D2
:1008200003180130A1008F30A000A00B152C8312FB
:100830000313210C0800AD08031904342B032C0406
:1008400003192D2C02347F232D08840022088313E2
:100850008000840A2308800000342A08003A031923
:10086000322C222C2908003A0319232C013A0319AF
:10087000232C222C0034A2018316061083120610AA
:10088000412C831603130614452C640003108312B5
:100890000313061803141030A10CA000A00B4E2C5B
:1008A0006400083083120313A20A2202031C3C2CAA
:1008B00021080800F823031C08003330D3234530F7
:1008C000A300A401230884003B2483138000083084
:1008D000A30AA40A2402031C622C0830A00045309D
:1008E000EE22003A0319762C0310080003140800C6
:1008F000F823031C0800CC30D323BE30D3233C3074
:10090000A300A401230884003B2483138000093042
:10091000A30AA40A2402031C822C0930A0003C3044
:10092000EE2A04308A000408840A82070034003466
:100930000134013402340334033404340434053400
:100940000634063407340834083409340934831271
:10095000A0006400831603139C18A92C831220089E
:1009600083169B003F309C051C1403101C180314B5
:10097000031801301A080800853083128F00EE300A
:100980008E0001308316920083129101663092002E
:10099000F7013D30900083160C148C1408000030D1
:1009A000A7248312D5000130A7248312D600023079
:1009B000A7248312D7000330A7248312D80008008D
:1009C0007730FC0184007C30F5243C3083138400B4
:1009D0005530F52483019429A0000C1EED2C000055
:1009E0008312031320089900080064008001840A20
:1009F0000406031900340406F62CF823031C08002F
:100A0000CC30D3234430D32B262832283E284A2802
:100A10005E287828A828A828AE28AE28BE28BE2898
:100A2000232B282B2D2B322B342B392B342A362AEF
:100A30003A2A3E2A432A462A3D08A1003C08A00043
:100A4000080020082106A006A10608002B298629F7
:100A50003329392941295A295C296C2985295A29A0
:0C0A6000FA0106140800023402340234CB
:02400E0050FF61
:104200003100060000000000000000000000000077
:00000001FF
